{
  "contractName": "SimpleStorage",
  "abi": [
    {
      "constant": false,
      "inputs": [
        {
          "internalType": "bytes",
          "name": "x",
          "type": "bytes"
        }
      ],
      "name": "set",
      "outputs": [],
      "payable": false,
      "stateMutability": "nonpayable",
      "type": "function"
    },
    {
      "constant": false,
      "inputs": [
        {
          "internalType": "string",
          "name": "x",
          "type": "string"
        }
      ],
      "name": "setStr",
      "outputs": [],
      "payable": false,
      "stateMutability": "nonpayable",
      "type": "function"
    },
    {
      "constant": false,
      "inputs": [
        {
          "internalType": "string",
          "name": "fileName",
          "type": "string"
        },
        {
          "internalType": "string",
          "name": "hashValue",
          "type": "string"
        },
        {
          "internalType": "uint256",
          "name": "size",
          "type": "uint256"
        },
        {
          "internalType": "address",
          "name": "uploader",
          "type": "address"
        },
        {
          "internalType": "string",
          "name": "transactionHash",
          "type": "string"
        }
      ],
      "name": "setFile",
      "outputs": [],
      "payable": false,
      "stateMutability": "nonpayable",
      "type": "function"
    },
    {
      "constant": false,
      "inputs": [
        {
          "internalType": "address",
          "name": "user",
          "type": "address"
        },
        {
          "internalType": "string",
          "name": "name",
          "type": "string"
        }
      ],
      "name": "setName",
      "outputs": [],
      "payable": false,
      "stateMutability": "nonpayable",
      "type": "function"
    },
    {
      "constant": true,
      "inputs": [
        {
          "internalType": "address",
          "name": "add",
          "type": "address"
        }
      ],
      "name": "getFile",
      "outputs": [
        {
          "internalType": "uint256",
          "name": "",
          "type": "uint256"
        },
        {
          "internalType": "string",
          "name": "",
          "type": "string"
        },
        {
          "internalType": "string",
          "name": "",
          "type": "string"
        },
        {
          "internalType": "uint256",
          "name": "",
          "type": "uint256"
        }
      ],
      "payable": false,
      "stateMutability": "view",
      "type": "function"
    },
    {
      "constant": true,
      "inputs": [],
      "name": "get",
      "outputs": [
        {
          "internalType": "bytes",
          "name": "",
          "type": "bytes"
        }
      ],
      "payable": false,
      "stateMutability": "view",
      "type": "function"
    },
    {
      "constant": true,
      "inputs": [],
      "name": "getStr",
      "outputs": [
        {
          "internalType": "string",
          "name": "",
          "type": "string"
        }
      ],
      "payable": false,
      "stateMutability": "view",
      "type": "function"
    },
    {
      "constant": true,
      "inputs": [
        {
          "internalType": "address",
          "name": "user",
          "type": "address"
        }
      ],
      "name": "getName",
      "outputs": [
        {
          "internalType": "string",
          "name": "",
          "type": "string"
        }
      ],
      "payable": false,
      "stateMutability": "view",
      "type": "function"
    }
  ],
  "bytecode": "0x608060405234801561001057600080fd5b5061122e806100206000396000f3fe608060405234801561001057600080fd5b50600436106100885760003560e01c8063474418ac1161005b578063474418ac146104155780635fd4b08a146106285780636d4ce63c146106e5578063b8c9e4ed1461076857610088565b80630399321e1461008d5780630b87c1e014610148578063191347df1461027f5780633121db1c1461033a575b600080fd5b610146600480360360208110156100a357600080fd5b81019080803590602001906401000000008111156100c057600080fd5b8201836020820111156100d257600080fd5b803590602001918460018302840111640100000000831117156100f457600080fd5b91908080601f016020809104026020016040519081016040528093929190818152602001838380828437600081840152601f19601f8201169050808301925050505050505091929192905050506107eb565b005b61018a6004803603602081101561015e57600080fd5b81019080803573ffffffffffffffffffffffffffffffffffffffff169060200190929190505050610805565b604051808581526020018060200180602001848152602001838103835286818151815260200191508051906020019080838360005b838110156101da5780820151818401526020810190506101bf565b50505050905090810190601f1680156102075780820380516001836020036101000a031916815260200191505b50838103825285818151815260200191508051906020019080838360005b83811015610240578082015181840152602081019050610225565b50505050905090810190601f16801561026d5780820380516001836020036101000a031916815260200191505b50965050505050505060405180910390f35b6103386004803603602081101561029557600080fd5b81019080803590602001906401000000008111156102b257600080fd5b8201836020820111156102c457600080fd5b803590602001918460018302840111640100000000831117156102e657600080fd5b91908080601f016020809104026020016040519081016040528093929190818152602001838380828437600081840152601f19601f820116905080830192505050505050509192919290505050610b38565b005b6104136004803603604081101561035057600080fd5b81019080803573ffffffffffffffffffffffffffffffffffffffff1690602001909291908035906020019064010000000081111561038d57600080fd5b82018360208201111561039f57600080fd5b803590602001918460018302840111640100000000831117156103c157600080fd5b91908080601f016020809104026020016040519081016040528093929190818152602001838380828437600081840152601f19601f820116905080830192505050505050509192919290505050610b52565b005b610626600480360360a081101561042b57600080fd5b810190808035906020019064010000000081111561044857600080fd5b82018360208201111561045a57600080fd5b8035906020019184600183028401116401000000008311171561047c57600080fd5b91908080601f016020809104026020016040519081016040528093929190818152602001838380828437600081840152601f19601f820116905080830192505050505050509192919290803590602001906401000000008111156104df57600080fd5b8201836020820111156104f157600080fd5b8035906020019184600183028401116401000000008311171561051357600080fd5b91908080601f016020809104026020016040519081016040528093929190818152602001838380828437600081840152601f19601f82011690508083019250505050505050919291929080359060200190929190803573ffffffffffffffffffffffffffffffffffffffff169060200190929190803590602001906401000000008111156105a057600080fd5b8201836020820111156105b257600080fd5b803590602001918460018302840111640100000000831117156105d457600080fd5b91908080601f016020809104026020016040519081016040528093929190818152602001838380828437600081840152601f19601f820116905080830192505050505050509192919290505050610baa565b005b61066a6004803603602081101561063e57600080fd5b81019080803573ffffffffffffffffffffffffffffffffffffffff169060200190929190505050610e2a565b6040518080602001828103825283818151815260200191508051906020019080838360005b838110156106aa57808201518184015260208101905061068f565b50505050905090810190601f1680156106d75780820380516001836020036101000a031916815260200191505b509250505060405180910390f35b6106ed610f10565b6040518080602001828103825283818151815260200191508051906020019080838360005b8381101561072d578082015181840152602081019050610712565b50505050905090810190601f16801561075a5780820380516001836020036101000a031916815260200191505b509250505060405180910390f35b610770610fb2565b6040518080602001828103825283818151815260200191508051906020019080838360005b838110156107b0578082015181840152602081019050610795565b50505050905090810190601f1680156107dd5780820380516001836020036101000a031916815260200191505b509250505060405180910390f35b8060009080519060200190610801929190611054565b5050565b6000606080600080600560008773ffffffffffffffffffffffffffffffffffffffff1673ffffffffffffffffffffffffffffffffffffffff168152602001908152602001600020805490509050600081116108c8576040517f08c379a00000000000000000000000000000000000000000000000000000000081526004018080602001828103825260118152602001807f7468652075736572206e6f742066696c6500000000000000000000000000000081525060200191505060405180910390fd5b6060600560008873ffffffffffffffffffffffffffffffffffffffff1673ffffffffffffffffffffffffffffffffffffffff168152602001908152602001600020600183038154811061091757fe5b90600052602060002090600502016000018054600181600116156101000203166002900480601f0160208091040260200160405190810160405280929190818152602001828054600181600116156101000203166002900480156109bc5780601f10610991576101008083540402835291602001916109bc565b820191906000526020600020905b81548152906001019060200180831161099f57829003601f168201915b505050505090506060600560008973ffffffffffffffffffffffffffffffffffffffff1673ffffffffffffffffffffffffffffffffffffffff1681526020019081526020016000206001840381548110610a1257fe5b90600052602060002090600502016001018054600181600116156101000203166002900480601f016020809104026020016040519081016040528092919081815260200182805460018160011615610100020316600290048015610ab75780601f10610a8c57610100808354040283529160200191610ab7565b820191906000526020600020905b815481529060010190602001808311610a9a57829003601f168201915b505050505090506000600560008a73ffffffffffffffffffffffffffffffffffffffff1673ffffffffffffffffffffffffffffffffffffffff1681526020019081526020016000206001850381548110610b0d57fe5b9060005260206000209060050201600201549050838383839750975097509750505050509193509193565b8060019080519060200190610b4e9291906110d4565b5050565b80600360008473ffffffffffffffffffffffffffffffffffffffff1673ffffffffffffffffffffffffffffffffffffffff1681526020019081526020016000209080519060200190610ba59291906110d4565b505050565b6040518060a001604052808681526020018581526020018481526020018373ffffffffffffffffffffffffffffffffffffffff16815260200182815250600460008473ffffffffffffffffffffffffffffffffffffffff1673ffffffffffffffffffffffffffffffffffffffff1681526020019081526020016000206000820151816000019080519060200190610c42929190611154565b506020820151816001019080519060200190610c5f929190611154565b506040820151816002015560608201518160030160006101000a81548173ffffffffffffffffffffffffffffffffffffffff021916908373ffffffffffffffffffffffffffffffffffffffff1602179055506080820151816004019080519060200190610ccd929190611154565b50905050600560008373ffffffffffffffffffffffffffffffffffffffff1673ffffffffffffffffffffffffffffffffffffffff1681526020019081526020016000206040518060a001604052808781526020018681526020018581526020018473ffffffffffffffffffffffffffffffffffffffff16815260200183815250908060018154018082558091505090600182039060005260206000209060050201600090919290919091506000820151816000019080519060200190610d94929190611154565b506020820151816001019080519060200190610db1929190611154565b506040820151816002015560608201518160030160006101000a81548173ffffffffffffffffffffffffffffffffffffffff021916908373ffffffffffffffffffffffffffffffffffffffff1602179055506080820151816004019080519060200190610e1f929190611154565b505050505050505050565b606080600360008473ffffffffffffffffffffffffffffffffffffffff1673ffffffffffffffffffffffffffffffffffffffff1681526020019081526020016000208054600181600116156101000203166002900480601f016020809104026020016040519081016040528092919081815260200182805460018160011615610100020316600290048015610f005780601f10610ed557610100808354040283529160200191610f00565b820191906000526020600020905b815481529060010190602001808311610ee357829003601f168201915b5050505050905080915050919050565b606060008054600181600116156101000203166002900480601f016020809104026020016040519081016040528092919081815260200182805460018160011615610100020316600290048015610fa85780601f10610f7d57610100808354040283529160200191610fa8565b820191906000526020600020905b815481529060010190602001808311610f8b57829003601f168201915b5050505050905090565b606060018054600181600116156101000203166002900480601f01602080910402602001604051908101604052809291908181526020018280546001816001161561010002031660029004801561104a5780601f1061101f5761010080835404028352916020019161104a565b820191906000526020600020905b81548152906001019060200180831161102d57829003601f168201915b5050505050905090565b828054600181600116156101000203166002900490600052602060002090601f016020900481019282601f1061109557805160ff19168380011785556110c3565b828001600101855582156110c3579182015b828111156110c25782518255916020019190600101906110a7565b5b5090506110d091906111d4565b5090565b828054600181600116156101000203166002900490600052602060002090601f016020900481019282601f1061111557805160ff1916838001178555611143565b82800160010185558215611143579182015b82811115611142578251825591602001919060010190611127565b5b50905061115091906111d4565b5090565b828054600181600116156101000203166002900490600052602060002090601f016020900481019282601f1061119557805160ff19168380011785556111c3565b828001600101855582156111c3579182015b828111156111c25782518255916020019190600101906111a7565b5b5090506111d091906111d4565b5090565b6111f691905b808211156111f25760008160009055506001016111da565b5090565b9056fea265627a7a72315820817946846a7445f94b56eb5fa851ae656913816165d824d872e2d8df92f8ce7064736f6c63430005100032",
  "source": "pragma solidity >=0.4.21 <0.7.0;\n\ncontract SimpleStorage {\n  bytes storedDatas;\n  string str;\n  //file文件的结构体\n  struct File {\n    string fileName;\n    string hashValue;\n    uint size;\n    address uploader;\n    string transactionHash;\n  }\n  //file文件的结构体的数组\n  File[] files;\n  mapping (address => string) Username;\n  mapping (address => File) Userfile;\n  mapping (address => File[]) Userfiles; //键值对，值是数组\n  mapping (address => mapping (bytes32 => File) ) UserfileName; //用户通过文件名字找到\n\n  function set(bytes memory x) public {\n    storedDatas = x;\n  }\n  function setStr(string memory x) public {\n    str = x;\n  }\n\n  function setFile(string memory fileName,string memory hashValue,uint size,address uploader,string memory transactionHash) public {\n    Userfile[uploader] = File(fileName,hashValue,size,uploader,transactionHash);\n    Userfiles[uploader].push(File(fileName,hashValue,size,uploader,transactionHash));\n  }\n\n  function setName(address user,string memory name) public {\n    Username[user] = name;\n  }\n  function getFile(address add) public view returns (uint,string memory,string memory,uint) {\n    uint length = Userfiles[add].length;\n    require(\n          length > 0,\n          \"the user not file\"\n      );\n    string memory fileName = Userfiles[add][length-1].fileName;\n    string memory hashvalue2 = Userfiles[add][length-1].hashValue;\n    uint size = Userfiles[add][length-1].size;\n    return (length,fileName,hashvalue2,size);\n  }\n\n  function get() public view returns (bytes memory) {\n    return storedDatas;\n  }\n  function getStr() public view returns (string memory) {\n    return str;\n  }\n  function getName(address user) public view returns (string memory) {\n    string memory name = Username[user];\n    return name;\n  }\n\n\n\n}\n",
  "sourcePath": "E:\\trufflePro\\reactdemo1\\contracts\\SimpleStorage.sol",
  "compiler": {
    "name": "solc",
    "version": "0.5.16+commit.9c3226ce.Emscripten.clang"
  },
  "schemaVersion": "3.0.23",
  "updatedAt": "2020-05-08T02:20:39.983Z",
  "networkType": "ethereum",
  "devdoc": {
    "methods": {}
  },
  "userdoc": {
    "methods": {}
  }
}